:020000040000FA
:10000000806A0010B1010000B9010000BB010000CE
:10001000BD010000BF010000C101000000000000A0
:10002000000000000000000000000000C30100000C
:10003000C501000000000000C7010000C901000068
:10004000CB010000CB010000CB010000CB01000080
:10005000CB010000CB010000CB01000043050000F4
:10006000CB010000CB010000CB010000CB01000060
:10007000CB010000CB010000CB010000CB01000050
:10008000CB010000CB010000CB010000CB01000040
:10009000CB010000CB010000CB010000CB01000030
:1000A000CB010000CB010000CB010000CB01000020
:1000B0001D050000CB010000CB010000CB010000BA
:1000C000CB010000CB010000CB01000000F002F8E2
:1000D00000F05EF80AA090E8000C82448344AAF184
:1000E0000107DA4501D100F053F8AFF2090EBAE882
:1000F0000F0013F0010F18BFFB1A43F0010318475C
:10010000A06F0000D06F000010F8013B0A4413F00C
:10011000030408BF10F8014B1D1108BF10F8015B64
:10012000641E05D010F8016B641E01F8016BF9D153
:10013000002D15D010F8014B03F00C030C2BA1EB94
:1001400004040ABF10F8013BA4EB8314A4EB0324BE
:1001500005F1010314F8016B5B1E01F8016BF9D581
:10016000914238BF10F8013BD1D3704700230024DF
:1001700000250026103A28BF78C1FBD8520728BFB7
:1001800030C148BF0B6070471FB51FBD10B510BD13
:1001900006F029FF1146FFF7F7FF00F038F800F0EE
:1001A000A4F803B4FFF7F2FF03BC06F045FF00001C
:1001B0000948804709480047FEE7FEE7FEE7FEE7FB
:1001C000FEE7FEE7FEE7FEE7FEE7FEE70448054937
:1001D000034A054B7047000001030000CD000000FA
:1001E00080680010806A001080680010014600BF1F
:1001F0000A00A1F10101FBD170474FF40000294929
:1002000008600846C06940F40000C8617047FFF705
:10021000F4FF00F053FF01F0B1F800F095F900F0A1
:10022000A6FB01F034F8012001F05CF8002108463B
:1002300001F07BF81CA001F090F80021012001F0F2
:1002400074F81BA001F089F84FF480701549886597
:100250001BA001F0AAF81DA001F0A7F84FF48070D0
:100260001049C86542F21070FFF7C0FF18E04FF464
:1002700080700C49886512A001F097F813A001F076
:1002800094F84FF480700749C86510A000F04DFF46
:100290001348FFF7ABFF00221146104600F039FB70
:1002A000E5E7000000C009203131313100000000D5
:1002B0003139322E3136382E31372E313438000074
:1002C0004C5043313736380D0A0000003139322E98
:1002D0003136382E31372E3134380D0A0000000007
:1002E00080F0FA027047704770470446AFF3008011
:1002F0002046FFF756FF704700000000FFFFFFFF9A
:1003000020207649086000BF7448006810F0400F54
:10031000FAD00320724908604FF000007149C1F81B
:10032000A801714908604FF00100704908607048E9
:10033000704908604FF00100A1F1040108604FF01E
:10034000AA006D4908604FF055006649C1F88C005D
:1003500000BF6A48006810F0806FFAD00320684937
:1003600008604FF0AA005F49C1F88C004FF05500BB
:10037000614908604FF000006249086062486349C3
:1003800008604FF000005749C1F8C8015B48006899
:10039000C0F30160032868D15448006810F00300DE
:1003A00006D0012823D002283FD003285CD100E0EA
:1003B00000BF52480068C0F30E0000F101004FEA90
:1003C0004000534900FB01F04649D1F88810C1F3C1
:1003D000074101F10101B0FBF1F141480068C0B2F1
:1003E00000F10100B1FBF0F04A4908603CE04348ED
:1003F0000068C0F30E0000F101004FEA40004649DA
:1004000000FB01F03749D1F88810C1F3074101F131
:100410000101B0FBF1F132480068C0B200F1010007
:10042000B1FBF0F03B4908601EE034480068C0F3BF
:100430000E0000F101004FEA40004FF4FA4100FBCA
:1004400001F02849D1F88810C1F3074101F10101F9
:10045000B0FBF1F122480068C0B200F10100B1FB2D
:10046000F0F02C49086000BF2FE02048006810F031
:10047000030006D0012810D0022819D0032823D168
:1004800000E000BF16480068C0B200F1010020493A
:10049000B1FBF0F01F49086016E011480068C0B2D7
:1004A00000F101001C49B1FBF0F01A4908600BE0B3
:1004B0000B480068C0B200F101004FF4FA41B1FBF3
:1004C000F0F01449086000BF00BF0648006820F43F
:1004D000704040F48040034908607047A0C10F405D
:1004E00004C10F4000C00F40ACC10F400CC10F4011
:1004F0006300050084C00F408CC00F4088C00F40CF
:1005000080C00F4008C10F40DE872806C4C00F40DE
:1005100000093D0000000010001BB70010B506E008
:100520000848046014F0080F01D000F035F80548C1
:10053000083800680349091F096810EA0104EFD16F
:1005400010BD7047E80F005000B587B000F09AFF6B
:1005500001F042F91E4804F085FF06906FF0FF009D
:1005600004F080FF05901A48A73804F07BFF049040
:1005700018481949002204ABCDE90021029005AAD0
:1005800006A9164801F0DFF9144801F00CFA1348E7
:1005900001F051FA07B000BD10B5104806F0CAFBD3
:1005A00010BD10B504460E480068201AFA2803D37F
:1005B0000B48046002F06FF90A480068201A41F203
:1005C0008831884203D30748046005F01BFE10BD44
:1005D000A80101C0096B0000616D0000100500104A
:1005E000040000100800001070B505460C460021FC
:1005F000284602F0A7FC0021284602F0A8FC0021B2
:10060000284602F0A1FC0021284602F0A3FC0022AB
:100610001146284602F0A3FC14B1204600F05DFF0D
:10062000284602F047F970BD2DE9F04107460C4617
:1006300000261CE0A5686A8901233846696804F031
:10064000CCF8064686B9B5F80A802868A060A0688C
:1006500010B1A06801F024FC284601F01FFA4146C1
:10066000384602F0DFFA02E0701C00D1A5603EB906
:10067000A06828B1A0684089B7F86E108842D9DD1B
:10068000BDE8F0812DE9F04105460F462C467CB1CE
:10069000A06820B121463846FFF7C6FF06E0207863
:1006A000032803D121463846FFF79EFF002605E0C8
:1006B0000121384601F0D9FE6FF004063046BDE84E
:1006C000F08170B504460E46254615B1284600F067
:1006D00004FF70BD2DE9F04104460E46174625463D
:1006E000A86820B129463046FFF79EFF06E028782B
:1006F000032803D129463046FFF776FF0020BDE8E6
:10070000F0812DE9F05F074689461546984600BFFF
:100710000FB900BF00BF00BF3C4695B90320207051
:10072000A06820B921464846FFF75EFF07E09F49D1
:10073000484602F00CFC21464846FFF775FF0026AC
:1007400048E0B8F1000F07D025B10020A06028468E
:1007500001F0A4F946463DE0207801281CD1022092
:100760002070D5F804A0A560052291A1504606F09E
:100770002FFB18B990486860BD2068818B494846B6
:1007800002F0E5FB21464846FFF74EFF00262146D2
:100790004846FFF729FF1DE02078022810D1A06805
:1007A00028B9A56021464846FFF73EFF06E0D4F889
:1007B00008B02946584601F0A0FB00BF002609E01A
:1007C0002989484602F02EFA0020A060284601F050
:1007D00065F900263046BDE8F09F2DE9F041074657
:1007E0000D4690460121284602F0F3FA0C2000F055
:1007F00047FF0446BCB10120207065600020A06066
:100800002146284602F09EFB6C49284602F09CFBDC
:100810006B49284602F09EFB01226A49284602F0F5
:100820009EFB002601E04FF0FF363046BDE8F08128
:1008300010B502F082FB6449086008460068A8B160
:1008400041F6907261496048006802F0E0F80446A1
:100850005CB9FF215C48006802F051F95A49086010
:100860005B495948006802F078FB00BF10BD594948
:10087000096841F08071574A116000BF55494968C5
:1008800011F0004FFAD053494968C1F30B10514998
:10089000096821F0E0614F4A1160704738B50022C5
:1008A0000621032001F046F904464B4860604B489E
:1008B00004F0D8FD009004F091FC054642F2B82205
:1008C0004249284604F057FB42F2B82269462846BE
:1008D00004F026FC2146284604F018FC284604F0C3
:1008E0004EFC284604F05CFC204601F0D7F838BDE9
:1008F000F8B506460C4615462868009042F2B82323
:100900006A462146304604F0EAFB204601F0C6F86C
:10091000F8BD70B504460D46164631480068401CC7
:100920002F49086044B93DB936B908460068012826
:1009300002DDFFF7B3FF07E034B12DB126B1324637
:1009400029462046FFF7D4FF70BD2DE9F0418046CF
:100950000D4614461E46069F3CB1324621462846A7
:10096000FFF7D7FF00201E490860BDE8F08108B5F9
:100970001A483530009004F031FC1A4908600846E6
:10098000006800B908BD42F2B82210491548006855
:1009900004F0F1FA00B1F5E70022AFF2510111487D
:1009A000006804F0FAFB00BFECE70000D506000089
:1009B000474554202F0000001000001003070000DE
:1009C000C3060000850600008C0400108A70000039
:1009D000DB0700000040034044700000730101C0C9
:1009E0008804001090040010002013E000EB400188
:1009F000FE4A02EB4121FE4A42F83010FD4902EB6B
:100A0000C00251600021FC4A42F8301002EBC002E3
:100A10005160401C0428E9D3F549F84A1160F649B1
:100A20004FF0A042C2F80C114FF00301F44A1160DC
:100A30004FF000014FF0A042C2F81811704700209B
:100A40000FE000EB4001EF4A02EB4121EE4A42F891
:100A50003010002102EBC0025160EC4A42F8201035
:100A6000401C0328EDD3E849E94A1160E7494FF0FB
:100A7000A042C2F820114FF00201E64A11604FF087
:100A800000014FF0A042C2F82811704710B502468D
:100A900042F480704FF0A044A0622046C16200235F
:100AA00000BF08E04FF0A040406B10F0010F01D1F3
:100AB000002010BD5B1CB3F5A02FF3D34FF0FF3027
:100AC000F7E7014641F480704FF0A043986201209F
:100AD0005862002200BF0DE04FF0A040406B10F0C4
:100AE000010F06D100204FF0A04358621846006B5A
:100AF0007047521CB2F5A02FEED34FF0FF30F7E74E
:100B00000179427941EA02214FF0A04211648178D3
:100B1000C27841EA02214FF0A04251640178427844
:100B200041EA02214FF0A042916470472DE9F04361
:100B300002460B464FF0FF3000243AE012F8011B4A
:100B4000002533E04FEA207989EAE10919F0010F25
:100B500002D0DFF8C48201E04FF000084FEA60796C
:100B600089EAA10919F0010F02D0DFF8B0C201E053
:100B70004FF0000C4FEAA07989EA610919F0010FE2
:100B800001D0A74F00E0002781EAE07919F0010FBA
:100B900001D0A44E00E0002688EA001989EA0C0979
:100BA00089EA070989EA060009116D1C022DC9DBD3
:100BB000641C9C42C2DBBDE8F08370B510250CE0DC
:100BC0001020FFF77EFF044614F0010F00D006E06E
:100BD00015B94FF0FF3070BD6D1E002DF0D100BF74
:100BE00014F0040F11D04FF0A040406840F0010015
:100BF0004FF0A04148608C48006840F48060C1F824
:100C000000014FF01500886003E012204FF0A04172
:100C1000886014F0020F04D000204FF0A0418861DA
:100C200004E04FF480704FF0A04188610020D2E7CB
:100C30002DE9F04105460220FFF743FF0746032058
:100C4000FFF73FFF80464FF6F07008EA000040EAE9
:100C50000740764988423AD1052D34D2DFE805F0C5
:100C6000031C22272D004FF440510020FFF70EFFF8
:100C700010240DE00120FFF724FF064616F0200F98
:100C800000D007E01CB94FF0FF30BDE8F081641ED2
:100C9000002CEFD100BF19E04FF480710020FFF766
:100CA000F5FE13E000210846FFF7F0FE0EE04FF4DA
:100CB00004510020FFF7EAFE08E04FF40051002045
:100CC000FFF7E4FE02E04FF0FF30DEE702E04FF016
:100CD000FF30DAE7FFF771FF002802DA4FF0FF304C
:100CE000D3E70020D1E72DE9F041054650480068E0
:100CF00040F080404F49C1F8C4004FF44F404FF0DE
:100D0000A04108604FF07800474908604FF0640444
:100D100000E0641E002CFCD102204FF0A0410860CE
:100D20003020486040014861282700BF05E0424864
:100D3000005DB84200DB02E0641C072CF7D300BF63
:100D4000641C04F00F004FF4004141EA80004FF0B2
:100D5000A04108620846006A20F40040086243F29D
:100D60000F7008611220C86040012F4908604FF4DD
:100D700000604FF0A04188614FF0640400E0641E01
:100D8000002CFCD100204FF0A04188614FF40041BD
:100D9000FFF77CFE10240CE00020FFF792FE0646D1
:100DA00016F4084F00D106E014B90020BDE8F08128
:100DB000641E002CF0D100BF2868FFF739FF00281F
:100DC00001DA0020F2E76868FFF79AFEFFF70CFEF1
:100DD000FFF735FE2620194908604FF088001849B2
:100DE00008604FF6FF7001F104012BE064C007209A
:100DF00000C00720FF05008020C007200801005028
:100E00001001005064D8072040C0072058C00720B8
:100E10001C01005024010050B71DC1046E3B820923
:100E2000DC760413B8ED082600010050905C002029
:100E3000C4C00F4000C00F404A70000000020050C4
:100E4000E40F005008604FF0A040D0F8000140F0DF
:100E500003004FF0A041C1F800010846006840F0CF
:100E6000010008604FF00100A0E7002085490860FC
:100E700043F2FF00091D08608348006820F08040AD
:100E80008249C1F8C400704770B506461020FFF7CC
:100E900018FE054626B1012E05D0022E0FD106E020
:100EA00005F001040EE0012020EA55040AE015F4E3
:100EB000A04F01D0012000E00020044602E04FF0E6
:100EC000FF3400BF00BF204670BD2DE9F0418046D1
:100ED0000E4606214046FFF729FE0546C5F3C555D7
:100EE0001F2D01DD6A4801E06948001F04461F2DDF
:100EF00002DDA5F1200000E028460746012E05D1BD
:100F00000121B94020680843206004E00121B94074
:100F10002068884320605F48006820F080004FF020
:100F2000A041C1F80001BDE8F081012908D15A4A69
:100F3000126842EA00024FF0A043C3F8002207E023
:100F4000554A126822EA00024FF0A043C3F800227B
:100F50007047014651480068084204D0504801607B
:100F60004FF0010070470020FCE770B54D4D296837
:100F700044684D4D55F83130056805F103054FEAD9
:100F8000950202E020CC20C3521E002AFAD1056847
:100F90006D1E45F04045444E06EBC106756070BDC0
:100FA00030B5424D2C684268414D55F834304568A3
:100FB00045B10568ED1CA90802E020CB20C2491EFE
:100FC0000029FAD130BD012905D12E4A1268024309
:100FD0002C4B1A6004E02B4A12688243294B1A609A
:100FE000704701462748001F0068084204D0254882
:100FF000001D0160012070470020FCE72B480068BD
:101000004FF0A041D1F81411884201D0012070475F
:101010000020FCE727480068A0F101014FF0A04044
:10102000D0F82801884201D1002070470120FCE758
:1010300001461E480268204850F83200084201D09C
:10104000012070470020FCE7184801681A4830F872
:101050003100C0F30A0070471449086800F101012B
:101060000846042900D100201049086070470D4946
:10107000086800F101010846032900D10020094950
:1010800008607047E40F0050C4C00F4000C00F401C
:1010900014020050000100500002005004020050F1
:1010A000080200502801005040C0072018010050DD
:1010B00000C007202C01005020C0072049490968C2
:1010C00041F01001474A11601146096841F04001A2
:1010D00011608321444A11730D200146C21700EBB1
:1010E00012621212404B1A71C21700EB12621212F6
:1010F000A0EB02221A7003211A4611730621117205
:101100007047014600BF3848007D10F0200FFAD02C
:10111000C8B2354A1070704700BF3348007D10F0E8
:10112000010FFAD030480078704700B5034603E05D
:1011300013F8010BFFF7E5FF18780028F8D100BD80
:101140002849096841F48011264A1160114609684E
:1011500041F4800111602549096841F08071244AF9
:10116000C2F8C4104FF08301224A11734FF00D00F2
:1011700001464FEAE07200EB12624FEA22221D4B59
:101180001A714FEAE07200EB12624FEA2222A0EBE2
:1011900002221A704FF003011A4611734FF0060134
:1011A00011727047014600BF1248007D10F0200FF9
:1011B000FAD0C8B20F4A1070704700BF0D48007DCA
:1011C00010F0010FFAD00B480078704700B50346C5
:1011D00003E013F8010BFFF7E5FF18780028F8D1BA
:1011E00000BD000000C0024000C00040C4C00F406D
:1011F00000C00F400080094010B5044624B14FF4F0
:1012000080505B49886503E04FF480505849C865B9
:101210004FF4FA70FEF7EAFF10BD564908707047A8
:1012200010B5044624B14FF480605149886503E04D
:101230004FF480604E49C8654FF4FA70FEF7D6FF50
:1012400010BD10B5044624B14FF4006048498865CC
:1012500003E04FF400604649C8654FF4FA70FEF7AA
:10126000C5FF10BD10B504460020FFF7C5FF0020E4
:10127000FFF7E7FF0020FFF7D3FF0120FFF7BCFFD8
:101280002046FFF7CAFF0020FFF7B6FF10BD10B5DC
:101290003948008843F6FF4140EA01003449A1F88B
:1012A00040004FF00000FFF7A7FF42F21070FEF77A
:1012B0009DFF3820FFF7D6FF42F21070FEF796FF31
:1012C0000120FFF7CFFF42F21070FEF78FFF0620DC
:1012D000FFF7C8FF42F21070FEF788FF0C20FFF7FF
:1012E000C1FF10BD20B14FF40051214A916503E0C8
:1012F0004FF400511E4AD16570471E490878704767
:1013000010B504460020FFF777FF0020FFF799FF94
:101310000120FFF785FF0120FFF76EFF2046FFF752
:101320007CFF0020FFF768FF10BD70B505460C4636
:10133000102C00DB002415B1012D0CD105E044F088
:1013400080042046FFF78EFF05E044F0C0042046ED
:10135000FFF788FF00BF00BF70BD10B5044603E073
:101360002078FFF7CDFF641C20780028F8D110BD4D
:1013700000C0092054C0092040C0092010B51648FB
:10138000006C40F48070144908644815C865FFF784
:10139000D7FE10BD10B504462046FFF703FF10BD71
:1013A00010B5FFF70AFFC0B210BD10B504464FF4E8
:1013B00080700949886542F21070FEF717FF2046D9
:1013C000FFF704FF42F21070FEF710FF4FF4807039
:1013D0000149C86510BD000000C0092030B500BF3C
:1013E000F84B1B68984201D200BF00BF00BF00BF8E
:1013F000F54B1B68984201D300BF00BF00BF00BF80
:1014000003790BB100BF00BF00BF00BF0388B3F575
:10141000A04F01DD00BF00BF00BF0388E94C246876
:101420001919884215D00B799BB9E74B1B68994273
:101430000FD0E64B1B688B4201D1E44B18600B8840
:101440000380E04B1B88C31A0C88DE4D2D682C44AA
:1014500063804388DB4C24681A19824211D01379C7
:101460007BB9DA4B1B68834201D1D84B1A600388E1
:101470001380D44B1B88D31A0488D24D2D682C447A
:10148000638030BD00BF00BFD14921F00301CD4AC8
:101490001160114608684FF4A0410180002141808D
:1014A00001711146096801F5A041C74A1160012187
:1014B000126811714FF4A041C34A12681180C24AE8
:1014C000126851800121C34A1170114609781170C8
:1014D000BC490968BD4A1160704770B5044604B93B
:1014E00070BD00BF14F0030F01D000BF00BF00BFEC
:1014F00000BFB4480068844203D3B3480068844204
:1015000001D300BF00BF00BFAE480068844203D3D0
:10151000AD480068844200D3E2E7A4F1080500BFAB
:10152000287908B900BF00BF00BF00202871A74874
:101530000068854201D2A54805602846FFF74EFFA6
:1015400000BFCDE72DE9F04105460A46D01C20F04A
:10155000030082B20C2A00DA0C22B2F5A04F02DDA1
:101560000020BDE8F08100BF96480068854203D3A3
:1015700095480068854201D300BF00BF00BF914875
:101580000068854203D390480068854201D328460D
:10159000E7E7A5F108048B480088201A86B2208866
:1015A000801B083887B200BFBA4201DD00BF00BF10
:1015B00000BFBA4201DD0020D3E7BA4201D128467C
:1015C000CFE72088DFF8FCC1DCF800C000EB0C019D
:1015D000087980BB088806F1080C94441FFA8CF344
:1015E000DFF8E8C1DCF800C08C4508D1DFF8D4C1D1
:1015F000DCF800C09C44DFF8D481C8F800C0DFF8F4
:10160000C4C1DCF800C00CEB03014FF0000C81F802
:1016100004C008804E802380B1F800C0BCF5A04F04
:1016200008D0B1F800C0DFF89C81D8F80080C4442D
:10163000ACF8023022E0FFE702F11400B8421DD8F6
:1016400006F10800104483B25E480068C1185F4884
:101650000068814201D25D48016000200871208845
:1016600008804E8023800888B0F5A04F06D00888F7
:10167000DFF850C1DCF800C060444380284670E7C2
:1016800070B502460AB9002070BDD01C20F00300DE
:1016900082B20C2A00DA0C22B2F5A04F01DD002044
:1016A000F2E74A480088474E3688801B83B272E0D2
:1016B00044480068C1180879002869D10E8803F1F0
:1016C0000800301A904263D30E8803F10800361ADE
:1016D00002F11400864218D303F10800104485B2C9
:1016E00038480068441900202071088820806380F1
:1016F0000D80012008712088B0F5A04F07D0208808
:10170000304E36683044458001E0012008712F4892
:101710000068814220D107E02C4800680088294EEB
:1017200036683044294E306028480068007928B176
:1017300026480068244E3668B042EDD100BF2348E9
:101740000068214E3668B04205D020480068007914
:1017500008B100BF00BF00BF00BF01F10800104486
:10176000194E3668B04201D900BF00BF00BF00BFAC
:1017700011F0030F01D000BF00BF00BF00BF11F088
:10178000030F01D000BF00BF00BF01F108007BE7DD
:101790000C480068C35AC2F5A040984288DC00207B
:1017A00072E770B504460D4604FB05F188B2FFF7F9
:1017B00067FF064626B104FB05F1304605F098FBAD
:1017C000304670BD94040010980400109C04001072
:1017D00043050010A004001010B5002001E0431CD8
:1017E00098B20928FBDB284B23F00301002019E005
:1017F0000023264C44F8203000220CE0234B53F801
:1018000020300B60214B43F82010214B33F810306F
:101810001944531C9AB21F4B33F810309342EDDC3D
:10182000431C98B20928E3DB10BD024600BF092A19
:1018300003DB00BF00BF0020704700BF134850F813
:10184000221059B1114B086843F8220000BF11F073
:10185000030F01D000BF00BF00BF00BF0846EBE789
:1018600001B9704700BF11F0030F01D000BF00BFE6
:1018700000BF0A46054B53F820301360034B43F872
:10188000202000BFEDE700008BEA072064EA072074
:10189000527000006470000009B9002200E00A687C
:1018A000C260704709B9002200E00A688260704790
:1018B0002DE9F04107460D4628687968884201D134
:1018C000012000E0002018BB6F4806680CE030687B
:1018D0007968884207D1D6F80C800121304600F0A3
:1018E000C4FD464600E0F668002EF0D16748046863
:1018F0000CE054B1206840B120687968884204D176
:101900000DB9002000E028682060E468002CF0D1C8
:101910000DB9002000E028687860BDE8F0812DE96D
:10192000F04106460F4614461D4639463046FFF73D
:10193000BFFF21463046FFF7B5FF29463046FFF787
:10194000ABFFBDE8F0812DE9F04704460D46164691
:101950001F46DDE909A9DDF8208000206060A06055
:10196000E06084F82A00C4F81C804948007884F8B4
:101970002D0047480078401C45490870C4F8109075
:101980003B46324629462046FFF7C9FF2046D0474E
:1019900010B10020BDE8F0873E48006820603D4857
:1019A00004602046F6E73C490860704700B50246EF
:1019B00002B900BD37480068904203D1354910682C
:1019C00008600FE03349086806E00168914202D1DF
:1019D0001168016002E000680028F6D100BF00B97C
:1019E000E7E700BF2C480068904202D10020FFF7D3
:1019F000DAFF00BFDDE710B502460AB9002010BDCE
:101A000090783038C3B22348016810E091F82D0077
:101A100098420BD1107891F82B40A04206D154780F
:101A20002C20405C844201D10846E8E7096800297F
:101A3000ECD10020E3E710B5044694F82A0010F03A
:101A4000010F0DD114F82A0F40F00100207014F896
:101A50002A0910F0200F03D0211D204604F005FFB5
:101A600010BD90F82A1011F0010F05D090F82A103F
:101A700021F0010180F82A107047014691F82A00F0
:101A800000F0010070470000C8040010C4040010FA
:101A9000A4040010A8040010AC0400102DE9F041CB
:101AA00004463CB900BF0CB900BF00BF00BF002016
:101AB000BDE8F08100BF207B50B1207B012807D01A
:101AC000207B022804D0207B032801D000BF00BF68
:101AD00000BF00262AE000BFE089002801DC00BF2B
:101AE00000BF00BFE089401E1FFA80F8A4F80E80F6
:101AF000B8F1000F18D12768257B032D04D12146AA
:101B00000820FFF7ADFE0BE0012D01D0022D04D11E
:101B100021460720FFF7A4FE02E02046FFF7DDFC88
:101B2000701CC6B23C4600E0002400BF002CD2D19D
:101B30003046BDE72DE9F05F83460F46914600260B
:101B4000BBF1000F09D0BBF1010F0AD0BBF1020FAE
:101B50000BD0BBF1030F0DD10BE006F1140086B2E0
:101B600000BF06F1140086B200BF06F10E0086B277
:101B700007E006E000BF00BF00BF00BF0020BDE8D7
:101B8000F09F00BFB9F1000F7AD0B9F1010F78D002
:101B9000B9F1020F76D0B9F1030F74D100BF08205C
:101BA000FFF743FE044600BF0CB90020E7E784F8C6
:101BB0000C900020206006F110002044C01C20F092
:101BC0000300606000BF207910F0030F01D000BF58
:101BD00000BF00BF2781F01C20F0030040F2DC5161
:101BE000081AB84201DD384605E0F01C20F0030079
:101BF00040F2DC51081A608100BF618960680144CD
:101C000004F2EC50814201D900BF00BF00BF00BF09
:101C1000F01C20F0030040F2DC51081A002801DC1F
:101C200000BF00BF00BF0120E081A2466089A7EB92
:101C3000000848E000BF0820FFF7F7FD054600BF99
:101C400025B92046FFF72AFF002098E785F80C9079
:101C5000002068732860CAF8005000BF4FF6FF707C
:101C6000804501DB00BF00BF00BFA5F808801FFA58
:101C700088F040F2DC51884206DA1FFA88F005E06D
:101C800025E049E049E057E040F2DC50688105F189
:101C90001000686000BF287910F0030F01D000BF6A
:101CA00000BF00BF00BF61896068014404F2EC50CE
:101CB000814201D900BF00BF00BF0120E8816889CF
:101CC000A8EB0008AA46B8F1000FB3DC3AE006F131
:101CD000130121F00302F91C21F00301114488B221
:101CE000FFF7CEFC04460CB9002048E704F11000D1
:101CF0003044C01C20F00300606027816781002011
:101D0000206084F80C9000BF207910F0030F01D000
:101D100000BF00BF00BF15E000BF0720FFF785FD33
:101D200004460CB900202AE7002060602781678103
:101D3000206084F80C9005E000BF00BF00BF00BF2A
:101D400000201CE700BF0120E081002060732046D6
:101D500015E72DE9F04105460F4600BF0DB900BF5C
:101D600000BF00BF00BF287B032809D0287B0128C3
:101D700006D0287B20B1287B022801D000BF00BFFD
:101D800000BF2889B84201DCBDE8F0812889A7EBB3
:101D900000083E462C4613E06089301A86B200BF28
:101DA0004FF6FF70804501DB00BF00BF00BF2089F8
:101DB00040442081246800BF0CB900BF00BF00BFB1
:101DC0006089B042E8DB207B78B96089B0420CD0F2
:101DD000A088001B304481B22046FFF7B3FB0446C5
:101DE00000BF0CB900BF00BF00BF668160892081C1
:101DF000206810B12068FFF751FE0020206000BF6E
:101E0000C2E770B5024600BF0AB900BF00BF00BFFD
:101E100001B10AB9002070BD00290ADA484284B233
:101E200000BF5089A04203DA00BF00BF0120F2E7E3
:101E300000E08CB2137B55680BB1032B0AD15068BC
:101E4000401A506002F110005668864217D2556061
:101E50000120E0E7022B01D0012B0AD1002906DA8C
:101E60005089A04203DB5068401A506007E001200F
:101E7000D1E700BF00BF00BF00BF0120CBE7508902
:101E8000084450811089084410810020C3E70146AE
:101E9000002002E0421CD0B209680029FAD1704744
:101EA00010B1C189491CC181704710B5024600BFFD
:101EB00002B111B900BF00BF10BD00BF104604E061
:101EC00003890C892344038100680368002BF7D140
:101ED00000BF03894489A34201D000BF00BF00BFF7
:101EE00000BF03680BB100BF00BF00BF03890C89AE
:101EF00023440381016000BFDEE730B505460C4690
:101F000021462846FFF7D1FF2046FFF7C9FF30BD25
:101F100070B5044601262568B5B100BF20896189E6
:101F2000401A2989884201D000BF00BF00BF208924
:101F30006189401A2881002020606089208128461C
:101F4000FFF7ACFD064600BF00BF208961898842CB
:101F500001D000BF00BF00BF002E01DD002070BD1A
:101F60002846FCE72DE9F04104460D4600260027EF
:101F700000BF24B11DB120892989884205DA00BF3C
:101F800000BF6FF00900BDE8F08100BF00BF00BFD7
:101F90000CB900BF00BF00BF6089801B6989C91BE5
:101FA000884204DB6889C01B1FFA80F803E060895F
:101FB000801B1FFA80F86A68D1196268901942463E
:101FC00004F051FF06EB080086B207EB080087B269
:101FD00000BF6089B04201DA00BF00BF00BF608966
:101FE000B04201D10026246800BF6889B84201DAF6
:101FF00000BF00BF00BF6889B84201DC00272D6820
:1020000065B168892989884208D100BF286820B154
:1020100000BF00BF6FF00800B5E700BF64B1608982
:102020002189884208D100BF206820B100BF00BFCD
:102030006FF00800A7E700BF002DA8D10020A2E79D
:102040002DE9F05F8046894616461D464FF0000B8D
:1020500000BFB8F1000F04D100BF00BF0020BDE8F1
:10206000F09F00BF00BFB9F1000F03D100BF00BF58
:102070000020F4E700BF4FF0000AB8F1000F02D0D3
:10208000B9F1000F01D10020E9E7444620E035B165
:102090006089A84203DC6089281A85B217E060894C
:1020A000401B87B2B74200DD37466268511909EB21
:1020B0000A003A4604F0D7FE0BEB07001FFA80FB3C
:1020C0000AEB07001FFA80FAF01B86B2002524688D
:1020D0000EB1002CDBD15846C1E72DE9F04705468B
:1020E0000F46904646464FF0000A00BF25B900BF94
:1020F00000BF0020BDE8F08700BF00BF1FB900BFD0
:1021000000BF0020F6E700BF1DB117B12889404588
:1021100002DA6FF00900EDE72C4618E000BF0CB9B9
:1021200000BF00BF00BFB1466089484501DAB4F87E
:102130000A9007EB0A014A46606804F094FEA6EB99
:10214000090086B20AEB09001FFA80FA2468002E03
:10215000E4D100BF0EB9C24501D000BF00BF00BF2F
:102160000020C7E72DE9F04104460F46206810B96A
:102170002046BDE8F081218900223846FFF7DAFCCD
:1021800005460DB92046F4E721462846FFF7EAFE4A
:10219000064600BF0EB100BF00BF00BF2046FFF7DC
:1021A0007DFC2846E5E700002DE9F04705468A4614
:1021B0004FF000086F68388903F056FA00F0FF0905
:1021C00000266148046819E0207C484514D1606904
:1021D00090B107F10C032A462146D4E905C0E04737
:1021E00050B100254FF0010836B1E068F060564864
:1021F0000068E060544804602646E468B8F1000FC7
:1022000001D1002CE0D14046BDE8F087024609B973
:10221000002000E00868106000207047024609B9FD
:10222000002000E008685060002070474161826132
:1022300070472DE9FE4F04460E4691461421304664
:10224000FFF7DFFD78B1002211460120FFF772FC95
:1022500005461DB94FF0FF30BDE8FE8F31462846D8
:10226000FFF74BFE0DE035466FF013012846FFF7F0
:10227000C8FD30B100BF00BF00BF00BF4FF0FF304E
:10228000EAE7484603F0B0FA070007D1B54202D0AA
:102290002846FFF703FC6FF00300DDE70CB1206870
:1022A00010B907F1040800E0A046207CA17ACDE92E
:1022B00001070091E37A4A464146284603F088FB2D
:1022C0008246B54202D02846FFF7E8FB5046C3E7F6
:1022D00070B504460D46221D29462046FFF7A9FF8A
:1022E00070BD70B5054618480068A84205D116486B
:1022F0000068C068144908600CE01348046807E0EF
:10230000E06820B1E068A84201D1E868E060E468D4
:10231000002CF5D129460020FFF7A2FA70BD70B558
:1023200005460020FFF781FA04465CB11C212046D7
:1023300004F000FE2574FF20E07203480068E060AE
:1023400001480460204670BDB004001070B504461A
:1023500000254CB1606818B16068FFF79FFB054627
:1023600021460420FFF77CFA284670BD70B504466C
:10237000002506E026682046FFF7E8FF2844C5B29E
:102380003446002CF6D1284670BD10B50446207C9A
:10239000A8B1207C0A2812D0207C01280FD0E06F41
:1023A00020B1E06FFFF77AFB0020E067606FFFF776
:1023B000DDFFA06FFFF7DAFF00206067A06710BDA8
:1023C00070B505460C4600BF2868A04203D12868B6
:1023D000C06828601BE0FE492868086012E0FC48DD
:1023E0000068C06848B1FA480068C068A04204D1DB
:1023F000F749E0680968C86008E0F5480068C06807
:10240000F3490860F24800680028E8D100BF0020C6
:10241000E06000BF2046FFF7B8FF207C0A2810D0FC
:10242000207C01280DD094F8220010F0010F08D074
:1024300094F8220040F0020084F82200204602F0C6
:102440005AFA207C01280BD000BF606F08B100BF92
:1024500000BF00BF00BFA06F08B100BF00BF00BF3A
:102460000020207400BF00BF70BD2DE9FF5F04464F
:102470000E46207C0A2808D12146D648FFF7A0FF47
:1024800021460220FFF7ECF936E0A76DD4F824804E
:102490000CB9002000E020680290201D00D100E06F
:1024A00060680390B4F818A0B4F82090D4F8905065
:1024B000D4F814B02146C848FFF782FFA06F10B1CE
:1024C000A06FFFF753FF606F10B1606FFFF74EFF13
:1024D00021460220FFF7C4F900BF1DB16FF00401CF
:1024E0005846A84700BF3EB103AB02AA4146384652
:1024F000CDE900A902F03FFBBDE8FF9F2DE9F047C1
:102500004FF00009B5480068401CB4490860002637
:10251000B148046838E100BF207C08B900BF00BFA3
:1025200000BF00BF207C012801D100BF00BF00BF59
:1025300000BF207C0A2801D100BF00BF00BF0025DA
:10254000207C022806D194F84A00062802D1681C93
:10255000C5B270E094F84A000C2802D1681CC5B2DC
:1025600069E094F89C0000281DDD54F8980F401C89
:10257000206020792168A4F19804A0F10100984A14
:10258000105C814257D30020C4F8980094F89C0056
:10259000072804D294F89C00401C84F89C00204634
:1025A00002F0CFFB47E0B4F93600002803DBE08EF1
:1025B000401C00B2E086A06FE8B3B4F93600B4F96D
:1025C0004810884237DB207C02280FD004F14404F5
:1025D0006088B4F9001000EBE100A179814A515CF8
:1025E00000FA01F000B2A080A4F144044FF0000012
:1025F000E086B4F85200B4F85C10884202DAB4F80D
:10260000520001E0B4F85C0080464FEA6800A4F88C
:102610005400B4F85400218F884206DA208F4FF618
:10262000FF7101EA4000A4F85400208FA4F8520082
:10263000204602F007FB207C062807D16749206B63
:102640000968081A282801D9681CC5B2207A10F038
:10265000080F33D0207C042802D0207C07282DD1FD
:102660006149D4F8940008444FF4FA71B0FBF1F1D9
:102670005A4A206B1268101A814204D20121204666
:10268000FFF7F3FE1AE094F89D0042F29F42504398
:10269000D4F8941001EBC0004FF4FA71B0FBF1F0E4
:1026A0004E4A216B1268511A884207D2204602F026
:1026B00011FB94F89D00401C84F89D00207C0328A9
:1026C00007D14649206B0968081A282801D9681CD7
:1026D000C5B2207C092807D14049206B0968081A37
:1026E000F02801D9681CC5B25DB32046FFF74DFE46
:1026F00056B100BF38480068844201D100BF00BF16
:1027000000BFE068F0600AE000BF33480068A04204
:1027100001D000BF00BF00BF2F49E068086000BFC4
:10272000D4F8900028B16FF00401D4F890206069CB
:10273000904700BFE76821460220FFF791F83C462A
:1027400022E014F8340F401C207020786178A4F146
:102750003404884216DB002084F8340000BFD4F82B
:102760008C0030B12146D4F88C20606990478146B6
:1027700001E04FF0000900BFB9F1000F02D120467F
:1027800002F0B9F82646E468002C7FF4C4AE0026B7
:102790001048046843E000BF207C0A2801D000BF35
:1027A00000BF00BF00250D49206B0968081AF028FA
:1027B00001D9681CC5B27DB32046FFF7E6FDCEB156
:1027C00000BF04480068844201D100BF00BF0DE093
:1027D000D0040010CC040010C8040010BC04001089
:1027E0008370000076700000B84C0A0000BFE068FB
:1027F000F0600AE000BFFC480068A04201D000BFC2
:1028000000BF00BFF849E0680860E7682146022081
:10281000FFF726F83C4602E0FFE72646E468002C76
:10282000B9D1BDE8F08770B5F048046830E0E06FDA
:10283000B8B100BFD4F8840040B100232146D4F8D9
:102840008460E26F6069B047054605E00025E06FEF
:1028500010B1E06FFFF722F900BF0DB90020E0676B
:1028600000BF94F8220010F0010F10D000BF94F8C0
:10287000220040F0020084F82200204602F03BF8DB
:1028800000BF94F8220020F0030084F82200E468DE
:10289000002CCCD170BD10B5FFF7C5FFD44800782F
:1028A000401CC0B2D249087010F0010F01D0FFF7F0
:1028B00025FE10BD70B50546287C082868D2DFE8E3
:1028C00000F00436414C5567675E002400BFC948DC
:1028D0000068A84205D1C7480068C068C5490860BB
:1028E0001CE0C4480068C449086012E0C24800689F
:1028F000C06848B1C0480068C068A84204D1BE4959
:10290000E8680968C86008E0BB480068C068BA4960
:102910000860B94800680028E8D100BF0020E860DE
:1029200000BF29460220FEF79BFF002533E000246C
:102930002946B248FFF744FD29460320FEF790FFE1
:10294000002528E000242946A848FFF739FD29463C
:102950000220FEF785FF00251DE00121284601F039
:102960002EFF04460CB90520287414E001212846E6
:1029700001F025FF04460CB9052028740BE0012165
:10298000284601F01CFF04460CB90920287402E017
:102990000024002500BF00BF1DB114B9284601F076
:1029A000AAFF204670BD00BF95480088401C80B239
:1029B000934A1080B0F5004F02DB4FF48050108036
:1029C0008A48016806E0088B8D4A1288904200D13F
:1029D000EAE7C9680029F6D18348016806E0088B58
:1029E000874A1288904200D1DEE7C9680029F6D1F3
:1029F0008248016806E0088B814A1288904200D123
:102A0000D2E7C9680029F6D17D48008870472DE9D2
:102A1000F04107460D46164600BF387C28B100BF7E
:102A200000BF6FF00C00BDE8F08100BF16B9FFF7E2
:102A3000BAFF06467148046810E0208BB0420CD102
:102A400044B1206830B12DB1286818B120682968D8
:102A5000884202D16FF00A00E5E7E468002CECD16F
:102A60006248046810E0208BB0420CD144B1206869
:102A700030B12DB1286818B120682968884202D188
:102A80006FF00A00CFE7E468002CECD159480468E5
:102A900010E0208BB0420CD144B1206830B12DB190
:102AA000286818B120682968884202D16FF00A00AE
:102AB000B9E7E468002CECD14B4804680AE0208BAD
:102AC000B04206D120682968884202D16FF00A001E
:102AD000A9E7E468002CF2D11DB1286808B1286884
:102AE00038603E8300BF43480068F8604148076093
:102AF00000BF002097E703466FF00400704770B5F1
:102B000004460E4600BF207C18B100BF00BF002065
:102B100070BD00BF207C012801D12046F8E70320CA
:102B2000FEF783FE05460DB90020F1E76069686194
:102B3000208B28830120287420892881288940F04F
:102B400002002881E07AE872A07AA8720CB900200D
:102B500000E02068286000BF26480068A04205D138
:102B600024480068C068234908601CE021480068C8
:102B70002149086012E020480068C06848B11E483A
:102B80000068C068A04204D11B49E0680968C860B9
:102B900008E019480068C0681749086016480068CE
:102BA0000028E8D100BF0020E06000BF21460220DD
:102BB000FEF756FE1348E86100BF10480068E86061
:102BC0000E48056000BF2846A2E701460B8D486A03
:102BD000C2180B8FC86A1844101A15D4088D48857E
:102BE000C86A101A70470000CC040010C804001016
:102BF000D4040010C0040010D0040010C40400105D
:102C0000B4040010F72A0000CB6A486AC01A0028F2
:102C100002DD0020488503E0888D8B8CC01A488532
:102C20000020DFE770B504460D4600BF208D4FF64B
:102C3000FF71081AA84201DA00BF00BF00BF208D53
:102C400028442085208D40F66831884201DD084601
:102C500020852046FFF7B9FF064640F2DA2086427B
:102C60000ADB00BF94F8220040F0020084F8220042
:102C7000204601F040FE00BF70BD2DE9F041054641
:102C80000E46304602F0B0FD044654B1208D40B1EE
:102C9000208D283887B2BD4201DA284600E0384648
:102CA00005462846BDE8F081AF480068AF4909688D
:102CB0000844AD4908600846006870472DE9FC47A4
:102CC00004460E469046994600BF207C28B100BFBE
:102CD00000BF6FF00C00BDE8FC8700BF16B1306884
:102CE000606002E06FF00800F5E7A4F82080208B18
:102CF00010B9FFF758FE2083FFF7D6FF05460020E6
:102D00006062A565681EE064A06640F668302085B4
:102D10006085606AE06240F66830A4F85C004FF4B9
:102D200006702087208F3146FFF7A7FF20870120FC
:102D3000A4F85200208F00EB80004FF6FF7101EAEB
:102D40004000A4F8540002202074C4F8889000BF0A
:102D500087480068A04205D185480068C06884495A
:102D600008601CE0824800688249086012E08148DF
:102D70000068C06848B17F480068C068A04204D1BC
:102D80007C49E0680968C86008E07A480068C06863
:102D900078490860774800680028E8D100BF002023
:102DA000E06000BF00BF74480068E06072480460E3
:102DB00000BF0120002102230A46CDE90010204671
:102DC00001F0E8FA074617B9204601F094FD3846AD
:102DD00081E7417470472DE9F04105460F461446DE
:102DE0001E4600BF1CB12046FEF758FE05E026B97E
:102DF0003846FFF75FFDBDE8F0810020FBE72DE9D5
:102E0000F04106464FF07F08002700255A48046825
:102E100013E0607CB0420FDC607C40450CDC534921
:102E2000206B0968081AB84206D35049206B09681C
:102E30000F1A254694F81180E468002CE9D11DB1E1
:102E400001212846FFF711FBBDE8F08170B500268F
:102E500000254A4804680BE04449206B0968081AB9
:102E6000B04204D34149206B09680E1A2546E46834
:102E7000002CF1D11DB101212846FFF7F6FA70BDF3
:102E800070B506460220FEF7D0FC04466CB9FFF789
:102E9000DDFF0220FEF7C9FC044634B93046FFF7D7
:102EA000AEFF0220FEF7C1FC0446002C43D0A02157
:102EB000204604F03FF8402004F1180404F8070C01
:102EC00040F66830A4F856004FF00000A4F858000F
:102ED00040F66830208260824FF0000004F80E0C4B
:102EE0004FF0FF0004F80D0C4FF4067020844FF0F3
:102EF000060020864FF00000A0854FF00600E08518
:102F00004FF0FF30E0834FF001006087FFF7CCFE09
:102F10000546E56425646563256514480068A0617D
:102F2000002020771648E0661648E067002084F805
:102F30008500A4F11804204670BD10B54020FFF7AD
:102F40009FFF10BD41617047C0F884107047C0F802
:102F500080107047C0F890107047C1617047C0F88A
:102F60008C1080F835207047B8040010BC040010A5
:102F7000C0040010D0040010C8040010CC040010DD
:102F8000D72D000000DD6D002DE9FC5F0446002018
:102F90000190FE48007810F0100F7DD0B4F85C006E
:102FA000616E00EB0109FA49206E0968401A15D4D8
:102FB000F749206E0968884204D1F649606E0968B5
:102FC000401A0BD4F349606E096888421CD1F2485C
:102FD0000068C089B4F85C10884215DDEE480068CE
:102FE000C089A4F85C00EA4800682066E9480068E7
:102FF0006066B4F85C00002806DD94F89C000028A8
:1030000002DD002084F89C00E249E06C09688842F7
:103010005CD10020A4F86C00B4F85C10606E084429
:10302000484542D114F8500F401C207014F8500944
:1030300003283ADBA06F002837D094F8220010F064
:10304000040F33D1204601F01AFEB4F85200B4F850
:103050005C10884207DDB4F85C0000EBD0714910C9
:10306000A4F8541006E0B4F8520000EBD0714910F7
:10307000A4F85410B4F85400218F4900884204DAAF
:10308000208F4004000CA4F8540004F12204608E48
:10309000E18A4FF0030200E05BE102FB01002086C1
:1030A000207840F0040004F82209CCE0B4F8520083
:1030B000218F084480B2B4F852108842F5DDB4F88C
:1030C0005200218F0844A4F85200BCE0E06C00F1EB
:1030D0000100B0490968081A7ED4AE49A06D09689C
:1030E000081A002878DC94F8220010F0040F08D0A9
:1030F00014F8220F20F004002070608E2086A4F1C6
:1031000022044FF0000004F13404A075608AB4F981
:10311000101000EBE10000B2A082208B9D490988CD
:10312000A1EB00002087608F218F084460874FF05B
:103130000000207797480068A06114F8240CA4F1DF
:103140003404042825DBB4F85200B4F85410884243
:103150000FDAB4F85200218F084480B2B4F852104C
:10316000884216DDB4F85200218F0844A4F85200BA
:103170000FE034F8381F4943628B91FBF2F11144A0
:1031800088B2618BA4F13804814201DAA4F85200BC
:1031900000BF25E0A76FA06F0068A06700BF786838
:1031A000FEF775FEB4F87010884201DD00BF00BF65
:1031B00000BF7868FEF76BFE34F8701F081A208095
:1031C0003846FFF7C3F834F8700948B100BFA06F64
:1031D00028B9606F18B900E032E000BF00BF00BF3F
:1031E000A06F08B3A16F0969486802F043FA8346EB
:1031F000A16F0969888902F037FA10F0010F07D131
:10320000A16F0969888902F02FFA10F0020F01D02E
:10321000012000E00020A16F8989084458445D49DD
:103220000968401A0028B5DDA06F18B94FF0FF30CB
:10323000E08601E00020E086002084F8340002E00F
:103240000020A4F86C0023E0676F606F006860677F
:1032500000BF7868FEF71BFEB4F87010884201DDED
:1032600000BF00BF00BF7868FEF711FE34F8701F82
:10327000081A20803846FFF769F834F8700938B129
:1032800000BFA06F18B9606F08B900BF00BF00BFD2
:10329000606F30B3616F0969486802F0EBF98346EB
:1032A000616F0969888902F0DFF910F0010F07D119
:1032B000616F0969888902F0D7F910F0020F01D017
:1032C000012000E00020616F898908445844314999
:1032D0000968081A05D42F49A06D0968081A002842
:1032E000B2DDE06BA8B32B49206C0968401A30D5D9
:1032F00034F83C0F29490988081A0FFA80F8B4F904
:103300000800A8EBE0000FFA80F82089404400B2E2
:103310002081A4F13C04B8F1000F03DAC8F10000E9
:103320000FFA80F804F13C04B4F90A00A8EBA000FD
:103330000FFA80F86089404400B260816089B4F976
:10334000081000EBE10000B2A0814FF0000044F84B
:103350003C091348008800287ADD0D48616A00683E
:1033600000F10100081A75D40948616A00680C4A26
:1033700012881044401E081A00286BDC0449606A59
:103380000968451A0748466800BF0DE0E8040010C8
:10339000E0040010E4040010D8040010BC04001085
:1033A000EA04001054550010406808B900BF00BF7F
:1033B00000BF00BF47F6FF70854201DB00BF00BFC2
:1033C00000BFFB4840684089A84223DA00BFF848A4
:1033D00040680089A84201DA00BF00BF00BFF4487E
:1033E00040680089401B1FFA80FA06E070892D1A98
:1033F000A6F808A00020708136687089A842F5DB25
:10340000684201B23046FEF7FCFC70B100BF00BF5D
:1034100000BF0AE0E6494868694209B2FEF7F1FCDC
:1034200018B100BF00BF00BF00BFE14970688860ED
:1034300008468089A18CDF4A1288891A401ADC4923
:103440008881DC49606A0860D9490969486011E0EF
:1034500000E1FFE7D749606A0968081A0AD500BF8A
:1034600094F8220040F0020084F82200204601F087
:1034700042FA00BFCF49606A0968081A71D4218DE9
:10348000606A0844401ECB490968081A002868DCB5
:10349000C849606A096888427ED101200190C44908
:1034A0000969888902F0E0F810F0010F07D1C049DE
:1034B0000969888902F0D8F810F0020F01D00120C4
:1034C00000E00020BA4989890844BB490880208D62
:1034D000098888425ADAB6490969888902F0C4F82D
:1034E00010F0010F17D0B2490969888902F0BCF8C1
:1034F00020F03F0BAE490969888902F0B5F800F069
:103500003E004BEA000B5846CDF800B002F0A6F89A
:10351000A74909698881208DA54988810969888919
:1035200002F0A2F810F0020F04D0A1488089401EDA
:103530009F4988819E4A91895068FEF70AFC9C4900
:103540000969888902F090F810F0010F07D19849B5
:103550000969888902F088F810F0020F02D0012072
:1035600001E06CE000209249898908449249088072
:1035700000BF218D606A08448E4909688E4A12880E
:103580001144884201D000BF00BF00BF89480068D5
:1035900089490988084400E046E0606200BF208D48
:1035A00085490988884201DA00BF00BF00BF208D2D
:1035B00081490988401A20852046FFF706FB7C4890
:1035C00040680089002806DD794840687B4908602A
:1035D00000207749486076490969888902F044F8F3
:1035E00010F0010F05D07648007840F020007449B3
:1035F000087000BF94F8220010F0010F0DD014F8ED
:10360000220F20F001002070207840F0020004F822
:103610002209204601F06FF905E094F8220040F0FD
:10362000010084F822002EE000BF94F8220040F050
:10363000020084F82200204601F05DF923E000BF7B
:1036400094F8220040F0020084F82200204601F0A5
:1036500052F918E05749606A0968081A08D4218DA0
:10366000606A0844401E53490968081A00280ADDA8
:1036700000BF94F8220040F0020084F822002046A7
:1036800001F039F900BF0198BDE8FC9F2DE9F04732
:1036900080464C48006800F114054A490968888949
:1036A00001F0E2FF0521B1EB203F46DA4549096808
:1036B000888901F0D9FF0521C1EB20304FF6FF7159
:1036C00001EA8006002436E015F80490B9F1000FF5
:1036D00006D0B9F1010F05D0B9F1020F21D104E0F4
:1036E000BDE8F087601C84B224E0601C285C0428DC
:1036F00002D1201DB04200DDF2E7E01C295CA01CD5
:10370000285C41EA002740F2B450874200DC17B938
:1037100040F2B45000E03846A8F83800201D84B2CA
:1037200008E0601C285C00B9DAE7601C285C2044D3
:1037300084B200BF00BFB442C6DB00BFD0E72DE9B2
:10374000FC4104460027B8461F48007810F0040FDB
:1037500040D0207C022806D11C49A06D096888420F
:103760000FD101270DE01349606A0968081A08D4CF
:10377000218D606A08440F490968081A002800DC96
:1037800001272FB300BF207C08B900BF00BF00BFD6
:103790000B48007840F008000949087094F82200AE
:1037A00020F0010084F822006FF00500BDE8FC81E4
:1037B00054550010E0040010EA040010F00400105A
:1037C000EC040010D8040010E8040010E404001019
:1037D0000020EBE7FD48007810F0020F12D0207CAB
:1037E00002280FD0207C03280CD000BF94F82200C0
:1037F00040F0020084F82200204601F07CF800BF6F
:103800000020D3E7F24800682063002084F89D0080
:103810002046FFF73BFF207C801E082873D2DFE89C
:1038200000F0049EF4F3F2F1F0EFE848007810F0B5
:10383000100F78D0E548007810F0020F73D0A16F18
:103840000969486801F016FF401CE249096888428E
:1038500069D1B4F86E00401CA4F86E00DE48006820
:10386000401C6062606AE062DA480068E064DB483D
:103870000068C089A4F85C00D7480068401E206634
:1038800004202074208F211DFFF7F7F92087208F57
:1038900000EB80004FF6FF7101EA4000A4F85400ED
:1038A000B4F85200012802D1208F400000E0208FA0
:1038B000A4F8520000BFB4F87000002801DC00BF7B
:1038C00000BF00BFB4F87000401EA4F87000A56FE0
:1038D0002868A067A06F18B94FF0FF30E08603E0BA
:1038E0000020E08684F84A002846FEF72FFD00BF3E
:1038F000D4F8880048B100222146D4F888306069A5
:103900009847804603E0E7E10DE04FF0000800BF74
:1039100000BF94F8220040F0020084F82200204604
:1039200000F0E9FF1AE0A948007810F0100F15D058
:10393000AA4800680088A94909684988CDE90010AB
:10394000A5480068A64A12888118A64803680C3367
:10395000026810329F48006801F00DF9BDE19B48F4
:10396000007810F0100F68D0E06C00F10100994968
:103970000968081A4AD49749A06D0968081A0028EE
:1039800044DC0420207400BFE06908B900BF00BF18
:1039900000BF00BFE06930B100222146E3696069E1
:1039A0009847804601E04FF0000800BFB8F1000FD3
:1039B00006D001212046FEF758FD6FF00400F5E621
:1039C000B4F852602046FFF7DFFA012E02D1208FB3
:1039D000400000E0208FA4F852008348007810F0E7
:1039E000200F0CD000BF94F8220040F0020084F8B1
:1039F0002200204600F07FFF00BF072020742AE04D
:103A000056E110E128E0ADE03DE026E073480068B3
:103A10000088724909684988CDE900106E4800683D
:103A20006F4A128881186F4803680C33026810329D
:103A30006848006801F09FF80DE06448007810F0D5
:103A4000020F08D0606A401E63490968884202D1AB
:103A5000204601F014F940E100BF2046FFF794FA38
:103A60006148007810F0200F0CD000BF94F82200BD
:103A700040F0020084F82200204600F03CFF00BF26
:103A80000720207429E12046FFF77EFA5648007887
:103A900010F0200F59D04D48007810F0100F46D08C
:103AA0004C49A06D0968884241D100BF94F82200BA
:103AB00040F0020084F82200204600F01CFF00BF06
:103AC0002046FEF762FC00BF48480068A04205D1CE
:103AD00046480068C068454908601CE043480068E3
:103AE0004349086012E042480068C06848B1404855
:103AF0000068C068A04204D13D49E0680968C86018
:103B000008E03B480068C0683949086038480068E8
:103B10000028E8D100BF0020E06000BF0A20207428
:103B200000BF34480068E0603248046019E000BF1C
:103B300094F8220040F0020084F82200204600F0B1
:103B4000DAFE00BF082020740BE02048007810F057
:103B5000100F06D01F49A06D0968884201D10620C8
:103B60002074BAE02046FFF70FFA1F48007810F0E3
:103B7000200F57D000BF94F8220040F0020084F8D4
:103B80002200204600F0B7FE00BF2046FEF7FDFBF6
:103B900000BF16480068A04205D114480068C068FC
:103BA0001249086032E0114800681149086028E0B5
:103BB0000F480068C068F8B10D480068C068A042AE
:103BC0001AD10B49E0680968C8601EE0E8040010DB
:103BD000BC040010E4040010E0040010D80400103D
:103BE000EA040010DC040010EC040010C80400100B
:103BF000D0040010CC040010FE480068C068FD49E5
:103C00000860FC4800680028D2D100BF0020E060B6
:103C100000BF0A20207400BFF7480068E060F64843
:103C2000046000BF59E02046FFF7AEF9F348007882
:103C300010F0100F3BD0F249A06D0968884236D1D0
:103C40002046FEF7A2FB00BFEE480068A04205D167
:103C5000EC480068C068EB4908601CE0E94800686F
:103C6000E449086012E0E3480068C06848B1E148F0
:103C70000068C068A04204D1DE49E0680968C860F5
:103C800008E0DC480068C068DA490860D948006884
:103C90000028E8D100BF0020E06000BF0A202074A7
:103CA00000BFD5480068E060D348046000BF14E05E
:103CB0002046FFF769F9D148007810F0100F0AD0BC
:103CC000CF49A06D0968884205D1CF48007840F0FF
:103CD0001000CD49087000E000BF00BF002065E57E
:103CE0007CB50546C548007810F0100F17D0C748BE
:103CF00000680088C54909684988CDE90010C448B2
:103D00000068C44A12888118C34803680C330268EB
:103D10001032BB480068401C00F02DFF66E0B74839
:103D2000007810F0020F61D0687CFFF7A9F8044614
:103D300014B94FF0FF307CBDB7480068103000D197
:103D400002E0B548006800692060288B2083B248F3
:103D500000680C3000D102E0AF480068C0686060C5
:103D6000AA4800680088208403202074A8480068BE
:103D7000401C6062606AE062A4480068C089A4F8E0
:103D80005C00B4F85C00A4F85400A1480068401E30
:103D9000206668696061E869E061288940F29911EC
:103DA0000840208100BF97480068E06095480460A3
:103DB00000BF2046FFF76AFC208F211DFEF75DFF44
:103DC00020870120002112230A46CDE90010204659
:103DD00000F0E0FA06462EB100212046FEF745FB32
:103DE0003046A8E7204600F086FDA4E70020A2E7C1
:103DF00010B5044686480068864909880844616A07
:103E0000401A002805DD8248006882490988084474
:103E100060628048008800280ADD00BF94F8220014
:103E200040F0020084F82200204600F064FD00BF4C
:103E3000204600F060FD10BD2DE9FC5F06468A4675
:103E40007549706808600968088801F00DFCC0F3C6
:103E50000320716801EB80006C4908606E490968B5
:103E6000088801F001FCC0F303208000C0F1000BC2
:103E700059463046FDF7C5FF10B93089142804D2E1
:103E80003046FDF70BFEBDE8FC9F514662480068D6
:103E9000103001F045FE70B94FF0704001F0EAFBC0
:103EA0005D490968096900EA010B4FF0604001F0C3
:103EB000E1FB834503D13046FDF7F0FDE3E73089B0
:103EC0000623009054480268103201680C313046D5
:103ED00001F0FDFB18B13046FDF7E0FDD3E74B499B
:103EE0000968888901F0C0FB4FEA20394FEA890050
:103EF00041423046FDF785FF18B13046FDF7CEFD53
:103F0000C1E742490968088801F0AEFB3F490968EA
:103F100008803E490968488801F0A6FB3B490968CA
:103F200048803A490968486801F0A4FB37490968A4
:103F300048603749086035490968886801F09AFB8C
:103F40003249096888602E49086030490968C88983
:103F500001F08AFB2D490968C8812C4909688889C4
:103F600001F082FB00F03F00244908703089097895
:103F700011F0030F01D0012100E000210844254980
:103F8000088000271F48046859E000BF207C08B95A
:103F900000BF00BF00BF00BF207C0A2801D100BFC6
:103FA00000BF00BF00BF207C012801D100BF00BFBF
:103FB00000BF208C15490968098888423DD1208BB3
:103FC000124909684988884237D1134960680968ED
:103FD000C968884231D11049206809680969884256
:103FE0002BD100BFE068A04201D100BF00BF00BFDD
:103FF000DFB113E0D0040010CC040010E80400107E
:10400000E4040010C8040010EC040010D8040010F0
:10401000E0040010EA040010DC040010E068F8601E
:10402000AE480068E060AD48046000BFE068A042B0
:1040300001D100BF00BF00BF03E02746E468002CA9
:10404000A3D100BF002C51D1A548046826E000BFD1
:10405000207C0A2801D000BF00BF00BF208CA149EE
:1040600009680988884218D1208B9E4909684988C7
:10407000884212D19C4960680968C96888420CD19D
:104080009949206809680969884206D12046FFF7E6
:10409000AFFE3046FDF702FDF5E6E468002CD6D110
:1040A0000027924805681FE03DB1286828B18E4975
:1040B000286809680969884214D1288B89490968E8
:1040C000498888420ED137B1E868F86087480068AF
:1040D000E860864805602846FFF702FE3046FDF797
:1040E000DDFCD0E62F46ED68002DDDD1002C77D029
:1040F00000207F49086030898881706888600846A0
:10410000466078480068086100207A4908607A496A
:104110000870E06FF0B100BFD4F8840040B1002314
:104120002146D4F884C0E26F6069E047804606E02B
:104130004FF00008E06F10B1E06FFDF7AFFC00BF7B
:10414000B8F1000F02D10020E06703E03046FDF730
:10415000A5FC98E6694804602046FFF7F0FA80461F
:1041600000206649086018F1050017D06248007801
:1041700010F0080F13D000BFD4F8900028B16FF0F2
:104180000501D4F890206069904700BF214653484C
:10419000FEF716F921460220FDF762FB6DE0564856
:1041A000007810F0100F08D021464C48FEF708F9AF
:1041B00021460220FDF754FB5FE04FF00008B4F801
:1041C0006C00002810DD00BFD4F8800048B1B4F8BE
:1041D0006C202146D4F8803060699847804602E020
:1041E00056E04FF0000800BF4248006850B3444812
:1041F000007810F0080F07D03E480068407B40F080
:1042000001003C490968487300BFD4F8840048B1F4
:1042100000233849D4F884C060690A682146E04721
:10422000804608E04FF000083248006818B1314875
:104230000068FDF733FC00BFB8F1000F02D02D4835
:104240000068E0672C48007810F0200F0FD000BF06
:10425000D4F8840040B100231A462146D4F884C023
:104260006069E047804601E04FF0000800BFB8F108
:10427000000F02D1204600F03EFB1D48406840B3CD
:104280001B494868FDF70AFC00201949486020E0F6
:1042900014490968888901F0E7F910F0040F15D175
:1042A0001048006800880F4909684988CDE9001066
:1042B00014480068144A128881180B4803680C33AC
:1042C000026810321148006800F055FC3046FDF7D6
:1042D000E5FB00BF00BF00BFD5E50000C80400102B
:1042E000CC040010D8040010DC040010C40400103A
:1042F00054550010F0040010EC040010F4040010F9
:10430000E8040010E0040010EA040010E4040010C7
:104310002DE9F04705460F46164698467C68288BDF
:1043200001F09CF92080288C01F098F96080C4F895
:104330000480686A01F096F8A060A08901F094F901
:1043400020F03F0040F01009484601F087F9A081B5
:10435000688D01F083F9E08100206082A08901F07E
:1043600083F900F03F01B146F01706EB9070801022
:10437000401D41EA00301FFA80FA504601F06EF904
:10438000A08100202082698D686A0844E862204686
:10439000BDE8F0872DE9FF4F87B00546934600BF83
:1043A000BBF1000F0CD1159850B90A9810F0030F0B
:1043B00006D100BF00BF6FF009000BB0BDE8F08F61
:1043C00000BF00BFBBF1000F06D1089820B100BFAD
:1043D00000BF6FF00900F0E700BFB5F86E00584568
:1043E00008DA95F8220040F0800085F822004FF0AE
:1043F000FF30E2E7CDF810B008980390159810F060
:10440000010F01D0042100E00021159810F0020FE7
:1044100001D00C2000E0002001EB0009A86E0590FF
:10442000B5F87080B8F10C0F03DA4FF6FC708045D8
:1044300008DD95F8220040F0800085F822004FF05A
:10444000FF30BAE7B8F1000F07D000BFA86F18B966
:10445000686F08B900BF00BF07E000BFA86F08B9C8
:10446000686F08B100BF00BF00BF00242646274682
:10447000A246CCE0288FA0EB09010498814203DA20
:10448000288FA0EB090000E004981FFA80FA0420AE
:10449000FDF7CBF9044604B979E1002020606060A3
:1044A0000EB9264605E000BF0FB900BF00BF00BF30
:1044B0003C602746149810F0010F27D00AEB090042
:1044C00081B200221046FDF735FB606000B95EE165
:1044D00000BF606840890AEB0901884201DA00BF29
:1044E00000BF00BF6068FDF7D2FC40441FFA80F8AF
:1044F000089838B16168496801EB09005246039990
:1045000002F0B1FC60684068A0602CE000224946DF
:104510001046FDF70FFB606000B938E16068FDF7F9
:10452000B6FC40441FFA80F8049800281BDD0122E5
:1045300051460320FDF7FEFA069028B96068FDF7A2
:10454000ADFA0020606022E108F101001FFA80F856
:104550000699039848600398A06060680699FDF783
:10456000A4FC00200690B8F10C0F03DC4FF6FC70A1
:10457000804500DD0BE1A4F80CA014216068FDF774
:1045800040FC00B103E1606840682061288B01F0C5
:1045900065F821690880288C01F060F8216948805D
:1045A000059800F05FFF216948600020216948827A
:1045B0002169888901F058F820F03F000A990843E2
:1045C000029001F04BF8216988811598A073216948
:1045D000888901F049F800F03F014FEAE97009EBE2
:1045E00090708010401D41EA003080B2CDE9010991
:1045F00001F034F8216988810498A0EB0A0080B2A8
:104600000490059850440590039850440390002E60
:104610003FF430AF049800283FF72CAF686F08B91B
:10462000002705E06F6F00E03F6838680028FBD185
:10463000002F65D03969888901F016F810F0010F54
:1046400006D13969888901F00FF810F0020F01D006
:10465000012000E00020B989401851D039698889CB
:1046600001F002F810F0030F4AD10A9810F0030F7E
:1046700046D1B889B1890844298F884240DCB87B8B
:10468000B17B88423CD109F1140251427068FDF7B8
:10469000B8FB20B100BF00BF00BF00BF77E070686B
:1046A000408978B970680290706800687060002175
:1046B00002980160A8F101001FFA80F80298FDF746
:1046C000EDF900BF00BF706818B17068408900281C
:1046D00001DC00BF00BF00BF71687868FDF7E5FB33
:1046E000B889B1890844B88130683860B44202D1D1
:1046F0003C46B7F80CA031460420FDF7B1F803E0C2
:104700000FB96E6700E03E600A9810F0020F03D107
:104710000A9810F0010F03D00BF101001FFA80FB83
:104720000A9810F0010F05D095F8220040F0200003
:1047300085F8220055F8680F58442860E888A0EBF7
:104740000B00E880A5F808802889A5F1680538B134
:1047500000BFA86F18B9686F08B900BF00BF00BFDD
:104760009CB1BAF1000F10DD206970B1149810F0FF
:10477000020F0AD12169888900F076FF40F0080015
:10478000029000F06BFF21698881002015E695F802
:10479000220040F0800085F8220016B13046FDF777
:1047A000E5FDB5F8700038B100BFA86F18B9686FA3
:1047B00008B900BF00BF00BF4FF0FF30FDE57CB57A
:1047C00005460C460020012123460246CDE9001093
:1047D00001462846FFF7DEFD7CBD2DE9FC4104467D
:1047E0000F4615461E46207C042808D0207C07284A
:1047F00005D0207C022802D0207C03280ED1002D79
:104800000ADD002003462A463946CDE900602046ED
:10481000FFF7C0FDBDE8FC810020FBE76FF007005B
:10482000F8E72DE9FC4104460D46686A00F01AFEDF
:1048300021698860688D00F011FF2169C881698D48
:10484000686A0844E862206900F11408A07B10F04F
:10485000010F06D0F84800F005FEC8F8000008F186
:1048600004080DB1286858B9281D00F0BDFF0646A0
:104870000EB9BDE8FC81301D00D100E070682860F1
:10488000B5F93600401C00D1E886E86B38B9EB4832
:104890000068E8632169486800F0ECFE2864208A1B
:1048A00061688988401A87B260684089C01B616866
:1048B000488160680089C01B61680881616820695F
:1048C0004860002021690882606800890090062302
:1048D0002A1D2946606800F0FAFE21690882062137
:1048E000A87ACDE90001EB7A2A1D2946606801F01B
:1048F000F3F800BFBDE72DE9FF5F044600200290FA
:10490000CF480068A04203D1002004B0BDE8F09F6A
:10491000B4F85C00B4F85210884202DAB4F85C00D3
:1049200001E0B4F852000390656FA66F26B100E075
:10493000366830680028FBD194F8220010F0020F8E
:1049400041D055B12969486800F094FEE16C401AE5
:10495000A98901440398814235D9029800F11401D4
:1049600000220120FDF7E6F8074617B96FF00100B5
:10497000CBE794F8220020F0030084F82200A06D19
:1049800000F070FD8046434639462046029AFFF704
:10499000BFFC824638890623221D214600903846F6
:1049A00000F095FEAAF810000621A07ACDE90001DA
:1049B000E37A221D2146384601F08EF83846FDF78D
:1049C0006DF80020A1E7AAE000BF2969888900F0FE
:1049D0004BFE10F0040F01D000BF00BF00BFA06F5E
:1049E00070B194F8220010F0400F09D1606F48B107
:1049F000606F006820B9606F8089218F884201DB79
:104A0000012000E0002028B994F8220010F0A00F47
:104A100000D191E028686067207C022810D02969C5
:104A2000888900F021FE40F01008404600F016FE94
:104A30002969888194F8220020F0030084F822007C
:104A400021462846FFF7EDFE2969486800F012FE6E
:104A500080462969888900F007FE10F0010F06D111
:104A60002969888900F000FE10F0020F01D00120B2
:104A700000E00020A989084408EB0009A06DB0EB14
:104A8000090001D5C4F858902969888900F0ECFD27
:104A900010F0010F06D12969888900F0E5FD10F0BA
:104AA000020F01D0012000E00020A989084400285D
:104AB00031DD00202860A06F10B9A5672E462DE0DB
:104AC0002969486800F0D6FD80463169486800F0E1
:104AD000D1FDB8EB00001BD504F1780801E0D8F84F
:104AE0000080D8F8000068B1D8F80010096948685B
:104AF00000F0C0FD83462969486800F0BBFDBBEBB0
:104B00000000ECD4D8F800002860C8F8005005E098
:104B10003560366802E02846FDF718FC656F5DB128
:104B20002969486800F0A6FDE16C401AA989014492
:104B3000039881427FF648AF00BFA5B194F89C006E
:104B400088B92969486800F095FDE16C401AA98987
:104B50000844B4F85C10884205D90020C4F89800D5
:104B6000012084F89C0094F8220020F0800084F852
:104B700022000020C9E62DE9FC5F81460E4617465B
:104B80009846DDF830A0002214210120FCF7D2FF66
:104B900005460DB9BDE8FC9F00BF6889142801D205
:104BA00000BF00BF00BF6C68504600F057FD20807A
:104BB0000D9800F053FD6080484600F053FC6060A3
:104BC000304600F04FFCA060A08900F04DFD20F0C1
:104BD0003F0040F0140B584600F040FDA08140F625
:104BE000683000F03BFDE08100206082A08900F089
:104BF0003BFD00F03F0040F4A04B584600F02EFD76
:104C0000A081002020822889062342463946009050
:104C1000284600F05CFD208206200021FF2342464A
:104C2000CDE900103946284600F056FF2846FCF72B
:104C300035FF00BFAEE70000B4050402BC0400105D
:104C4000F404001070B50446A06F00B970BDA56FE4
:104C500000E02D6828680028FBD1606F2860A06FF5
:104C600060670020A06794F84A00401C84F84A005E
:104C70000020E0632046FFF73EFE00BFE6E72DE997
:104C8000F0410446A06F08B9BDE8F081A66F306816
:104C9000A06704F1740500E02D68286858B1296800
:104CA0000969486800F0E6FC07463169486800F089
:104CB000E1FC381AF0D4286830602E6094F84A007D
:104CC000401C84F84A000020E0632046FFF713FEF2
:104CD00000BFD9E72DE9FC41044600221421012040
:104CE000FCF728FF05460DB9BDE8FC8100BF6889C7
:104CF000142801D200BF00BF00BFA16D481E00F004
:104D0000B1FB07463B46002229462046FFF700FB41
:104D1000064628890623221D21460090284600F0D9
:104D2000D6FC308206200021CDE90010E37A221D56
:104D30002146284600F0D0FE2846FCF7AFFE00BF13
:104D4000D2E72DE9FC410446A66F06B9666F0EB99D
:104D5000BDE8FC81002215210120FCF7EBFE054691
:104D600005B9F5E700BF6889142801D200BF00BF6C
:104D700000BF30694368002229462046FFF7C8FA81
:104D80000746B06800786968087528890623221DDF
:104D900021460090284600F09AFC38820620002127
:104DA000CDE90010E37A221D2146284600F094FE4A
:104DB0002846FCF773FE00BFCAE700002DE9F34F59
:104DC00085B006467568288800F04EFCC0F30320C5
:104DD000082101EB8000318988420CDC288800F032
:104DE00043FCC0F303208000C0F1000B594630465D
:104DF000FDF707F818B13046FCF750FEB8E07768C9
:104E000005F11000069900F08BFE8146388800F00D
:104E10002BFC0490788800F027FC03904FF00008EA
:104E2000002002908246F448046838E00020029096
:104E3000618A0398814216D1B9F1000F02D144B1C1
:104E4000206830B120682969884202D0B9F1000F8A
:104E500009D001200290BAF1000F04D1207C10F09B
:104E6000040F00D1A2460298B8B1A18A04988142E9
:104E700013D1201D05D0606818B16068E9688842C8
:104E80000BD1B8F1000F07D0E068C8F80C00DA4881
:104E90000068E060D848046003E0A046E468002CA5
:104EA000C4D100BF04B9544624B9069840682969A2
:104EB000884259D1F88868B13089112305F1100270
:104EC000111F0090304600F002FC18B13046FCF78C
:104ED000E5FD4DE06FF007013046FCF792FF38B179
:104EE00000BF00BF00BF00BF3046FCF7D7FD3FE06A
:104EF0007CB1A06948B10498009005F10C033246DA
:104F00002146D4E906C0E04731E03046FCF7C6FD53
:104F10002EE0B9F1000F23D14FF0704000F0AAFB52
:104F2000296900EA010B4FF0604000F0A3FB8345C4
:104F300016D0288800F098FBC0F30320082101EB6D
:104F4000800B59463046FCF75CFF00BF7068A842F2
:104F500001D000BF00BF00BF0321304600F070FA4F
:104F60003046FCF79BFD02E03046FCF797FD00BFA2
:104F700007B0BDE8F08F30B503460C4600259E48CB
:104F8000016808E08B4205D100BF0DB100BF00BF32
:104F900000BF0125C9680029F4D10CB9002000E048
:104FA00020681860B2B94FF480529348016808E055
:104FB000488A904204D1501C82B28F48016800E0B8
:104FC000C96819B1A2F5FE40FF38F1D111B16FF0F7
:104FD0000A0030BD5A8225B987480068D8608648E3
:104FE00003600020F5E72DE9FF4F83B004460F462C
:104FF0009B46DDF84080608A60B9628A214620467F
:10500000FFF7B9FF8246BAF1000F03D0504607B050
:10501000BDE8F08F08213846FCF7F3FE70B100229E
:1050200008210120FCF786FD054615B94FF0FF3039
:10503000EDE739462846FCF760FF00E03D4600BF3B
:105040006889082801D200BF00BF00BF6E68608A6F
:1050500000F004FB3080584600F000FB7080002018
:10506000F0800CB1206810B908F104090EE0206846
:10507000D8F80410884208D0BD4203D02846FCF777
:105080000DFD00256FF00800C1E7A146288900F05A
:10509000E5FAB080207C10F0010F0DD12889112392
:1050A000009049462846059A00F011FBF080F088F0
:1050B00010B94FF6FF70F0801121A07A8DE803013E
:1050C000E37A49462846059A00F082FC8246BD42B2
:1050D00003D02846FCF7E2FC0025504697E72DE96F
:1050E000F84306460F4614469846204600F07CFBDF
:1050F00005461DB96FF00300BDE8F883434622461C
:10510000394630460095FFF76EFFF5E770B5044667
:105110000D46A38A221D29462046FFF7E0FF70BDF9
:105120002DE9F04104460E461746608A60B9628A4E
:1051300021462046FFF71FFF8046B8F1000F02D03E
:105140004046BDE8F08100BF0EB9002000E03068A5
:105150006060A782207C40F0040020742648056827
:1051600004E0AC4201D10020EBE7ED68002DF8D15E
:1051700021480068E060204804600020E1E71F4902
:1051800009B9002101E01D490968416000218182BF
:10519000017C21F00401017470478161C261704794
:1051A00070B5054614480068A84205D11248006849
:1051B000C068114908600CE00F48046807E0E06827
:1051C00020B1E068A84201D1E868E060E468002C02
:1051D000F5D129460120FCF743FB70BD10B5012035
:1051E000FCF723FB04462CB12021204601F0A2FE4F
:1051F000FF20E072204610BDF80400108A70000005
:105200002DE9FF5F054689466C68208800F02CFA7E
:10521000C0F303204FEA8008C8F100012846FCF7DC
:10522000F0FD10B92889042800D2C5E0686890F81C
:1052300000A0BAF1080F6FD101274FF0704000F0C5
:1052400019FA216900EA010B4FF0604000F012FAF0
:10525000834500D10027494604F1100000F060FCAE
:1052600000B1002727B92846FCF718FCBDE8FF9FCE
:105270002889082800D29FE0284600F083FA18B158
:105280002846FCF70BFCF1E722212846FCF7B9FD84
:1052900088B341462846FCF7B4FD20B100BF00BFEB
:1052A00000BF00BF8CE0298900220220FCF742FCED
:1052B000074607B984E000BF798908F108008142F8
:1052C00001D200BF00BF00BF29463846FCF74AFEA6
:1052D00020B100BF00BF00BF00BF71E07C68C8F113
:1052E000000001B23846FCF78CFD28B100BF00BFBA
:1052F00000BF00BF64E004E02846FCF7CFFB3D465A
:105300000BE06FF021012846FCF77BFD28B100BFC0
:1053100000BF00BF00BF53E048E06E68E068039044
:105320002069E06003982061002030704FF2FF7028
:1053300000F094F97188884208DC4FF4006000F0B6
:105340008DF9401C71880844708006E04FF40060BD
:1053500000F084F9718808447080208900F084F995
:10536000C0B240F47F47384600F078F92081002031
:1053700060811421204600F0FBF9608141462846F7
:10538000FCF73FFD18B100BF00BF00BF0DE00120DA
:105390000021FF230A46CDE90109009104F10C0127
:1053A000284600F015FB074600BF00E000BF00BF25
:1053B0002846FCF773FB59E72846FCF76FFB55E7D7
:1053C0002846FCF76BFB00BF50E72DE9FC4706467B
:1053D0000F469046002224210120FCF7ABFB054636
:1053E0000DB9BDE8FC8700BF6889242801D200BF41
:1053F00000BF00BFD6F804906C68277084F8018065
:105400000020A080E08071686A6802F108001C2218
:1054100001F029FD002060806989204600F0A8F98C
:10542000608001200021FF2309F10C02CDE900106A
:10543000284600F051FB2846FCF730FB00BFD0E7C0
:1054400070B505460C46224603212846FFF7BDFFEE
:1054500070BD70B505460C4622460B212846FFF765
:10546000B4FF70BD0146080601F47F4240EA022005
:1054700001F47F0240EA122040EA116070472DE9F2
:10548000FF43064688466F46347800BF302C01DB68
:10549000392C03DD002004B0BDE8F08300254FF077
:1054A0000A09302C0ED1701C06460478782C01D0E5
:1054B000582C05D14FF01009701C0646047801E005
:1054C0004FF0080900BF302C09DB392C07DCA4F1B0
:1054D000300005FB0905701C06460478F3E7B9F1B6
:1054E000100F1BD1302C01DB392C07DD612C01DBC7
:1054F000662C03DD412C11DB462C0FDC612C03DB19
:105500007A2C01DC612100E0412104F10A00401AFB
:1055100040EA0515701C06460478D4E700BF00BFBA
:105520002E2C09D103A8874201D30020B3E720C75E
:10553000701C06460478A9E700BF00BF6CB1202CA0
:105540000BD00C2C09D00A2C07D00D2C05D0092C1F
:1055500003D00B2C01D000209DE76846381A0121AA
:1055600001EBA00005282AD2DFE800F00305060FB2
:105570001B0000208FE722E0B5F1807F01D30020DF
:1055800089E7009845EA006519E0B5F5803F01D349
:10559000002080E700980006019940EA0140054399
:1055A0000DE0FF2D01D9002075E700980006019954
:1055B00040EA0140029940EA0120054300BF00BFD4
:1055C000B8F1000F04D02846FFF74CFFC8F80000E0
:1055D000012060E718B5044669462046FFF74FFFF3
:1055E00008B1009818BD4FF0FF30FBE7F1B582B06D
:1055F00002980190224901AA002427E0002300BF5D
:1056000010780A2690FBF6F706FB1700C5B2107853
:1056100090FBF6F0107005F13000C7B218465E1C22
:10562000F3B20DF8007010780028E9D103E01DF8FE
:10563000030001F8010B1800A3F10106F3B2F6D143
:105640002E2001F8010B521C601CC4B2042CD5DBC7
:105650000026481E014606700948FEBD01460806A0
:10566000000C40EA1120704700B502461046FFF7D3
:10567000F5FF00BD00B503461846FFF7F3FE00BD79
:10568000685500102DE9F04180460E46002445463D
:1056900008E0287807026D1C287807436D1C3C44FD
:1056A000B01E86B2012EF4DC002E02DD287807023F
:1056B0003C44A0B200EB1444200C000402D0A0B281
:1056C00000EB1444A0B2FFF7C9FFBDE8F0812DE95B
:1056D000F05F80460E4617469946DDF828B0002454
:1056E000A246454618E069896868FFF7CBFF044485
:1056F000A0B200EB1444688900EBD0714910B0EB04
:10570000410108D0CAF1010000F0FF0AE0B2C4F381
:10571000072141EA00242D68002DE4D1BAF1000FE1
:1057200004D0E0B2C4F3072141EA0024308880B2FB
:10573000044430684FF6FF7101EA10400444388891
:1057400080B20444386801EA104004444846FFF738
:1057500085FF04445846FFF781FF0444A0B200EBE4
:105760001444A0B200EB1444E04380B2BDE8F09FC3
:1057700070B504460D4629462046FFF783FFC04317
:1057800080B270BD2DE9F041064600240027354661
:1057900017E069896868FFF775FF0444A0B200EB61
:1057A0001444688900EBD0714910B0EB410107D077
:1057B000C7F10100C7B2E0B2C4F3072141EA0024F7
:1057C0002D68002DE5D127B1E0B2C4F3072141EAED
:1057D0000024E04380B2BDE8F0810000CB480068BF
:1057E0007047CB480068704770B50546C9480468E3
:1057F0000EE02046FCF741F948B12868A16808404E
:10580000D4E901121140884201D1204670BD2468BC
:10581000002CEED1C048006820B1BF480068FCF7FA
:105820002CF908B90020F1E7BB480068EEE72DE944
:10583000F04706460F4674682088FFF715FF0421DD
:10584000B1EB203F05D03046FCF728F90020BDE839
:10585000F0872088FFF708FFC0F303284FF6FF709A
:1058600000EA88086088FFF7FFFE8146708940459E
:1058700002DB3089484504DA3046FCF70FF9002096
:10588000E5E741462046FFF773FF20B13046FCF7BD
:1058900005F90020DBE749463046FCF75AFA4FF09D
:1058A000010A3D4600BF2846FCF7E7F870B1281D05
:1058B0000CD0686850B120696968884205D02946D3
:1058C00004F1100000F02CF900B10DE0BAF1000F66
:1058D00004D04FF0000A8F48056800E02D68BD42F3
:1058E00000D12D68002DDED100BF394604F10C0037
:1058F00000F016F960B94FF07040FFF7BBFEE168A9
:1059000000EA010A4FF06040FFF7B4FE824504D17F
:105910003046FCF7C3F8002099E725B93046FCF77C
:10592000BDF8002093E743F6FF70FFF797FEE1888C
:10593000084207D0304600F0D0FA06460EB90020E3
:1059400085E77468714807607148046039463046DD
:10595000FCF72AFCA8BB2089FFF786FEC0B201280D
:105960000DD0062806D011280ED139463046FFF753
:1059700025FA25E039463046FEF75EFA20E0394642
:105980003046FFF73DFC1BE0394604F1100000F003
:10599000C7F888B94FF07040FFF76CFE216900EA44
:1059A000010A4FF06040FFF765FE824504D0746045
:1059B00002213046FFF744FD3046FCF76FF800BF88
:1059C00000BF0020514908605149086000BF3EE710
:1059D0002DE9F05F05460F4690469A460C9EB8F1B9
:1059E000000F64D04FF0140914212846FCF709FA7F
:1059F00018B16FF00100BDE8F09F6C6800BF6889C6
:105A0000142801D200BF00BF00BF2089FFF72CFE81
:105A10006AF31F208346FFF721FE20812089FFF7CC
:105A200023FE01120B9840EA012B5846FFF716FEA1
:105A30002081B8F1000F01D1002001E0D8F800006A
:105A40002061CB464FEAE97109EB917189104FF45F
:105A5000804242EA01210A9A114388B2FFF7FEFD13
:105A600020802889FFF7FAFD60800020E0802B4825
:105A70000088FFF7F3FDA08028480088401C2749D4
:105A800008800FB1386828B9301D00D100E0706877
:105A9000E06004E00FB9002000E03868E06000201A
:105AA000608149462046FFF763FE608102E06C6832
:105AB00004F11008308D48B12889318D884205DD08
:105AC00042463146284600F0D5FA94E74246294638
:105AD0003046736998478EE72DE9FE4F05460E461E
